{
  "_format": "hh-sol-artifact-1",
  "contractName": "Web3Forms",
  "sourceName": "contracts/Web3Forms.sol",
  "abi": [
    {
      "inputs": [
        {
          "internalType": "address",
          "name": "",
          "type": "address"
        },
        {
          "internalType": "uint256",
          "name": "",
          "type": "uint256"
        }
      ],
      "name": "FormCreators",
      "outputs": [
        {
          "internalType": "uint32",
          "name": "",
          "type": "uint32"
        }
      ],
      "stateMutability": "view",
      "type": "function"
    },
    {
      "inputs": [
        {
          "internalType": "address",
          "name": "",
          "type": "address"
        },
        {
          "internalType": "uint32",
          "name": "",
          "type": "uint32"
        }
      ],
      "name": "IsFormFilled",
      "outputs": [
        {
          "internalType": "bool",
          "name": "",
          "type": "bool"
        }
      ],
      "stateMutability": "view",
      "type": "function"
    },
    {
      "inputs": [
        {
          "internalType": "uint32",
          "name": "",
          "type": "uint32"
        }
      ],
      "name": "MetaData",
      "outputs": [
        {
          "internalType": "string",
          "name": "CID",
          "type": "string"
        },
        {
          "internalType": "uint32",
          "name": "form_id",
          "type": "uint32"
        },
        {
          "internalType": "address",
          "name": "creator",
          "type": "address"
        }
      ],
      "stateMutability": "view",
      "type": "function"
    },
    {
      "inputs": [
        {
          "internalType": "string",
          "name": "_formData",
          "type": "string"
        }
      ],
      "name": "createTheForm",
      "outputs": [],
      "stateMutability": "nonpayable",
      "type": "function"
    },
    {
      "inputs": [
        {
          "internalType": "string",
          "name": "_formData",
          "type": "string"
        },
        {
          "internalType": "uint32",
          "name": "_formId",
          "type": "uint32"
        }
      ],
      "name": "fillForm",
      "outputs": [],
      "stateMutability": "nonpayable",
      "type": "function"
    },
    {
      "inputs": [
        {
          "internalType": "uint32",
          "name": "_formId",
          "type": "uint32"
        }
      ],
      "name": "formResponses",
      "outputs": [
        {
          "components": [
            {
              "internalType": "string",
              "name": "CID",
              "type": "string"
            },
            {
              "internalType": "uint32",
              "name": "form_id",
              "type": "uint32"
            },
            {
              "internalType": "address",
              "name": "responder",
              "type": "address"
            }
          ],
          "internalType": "struct Web3Forms.Record[]",
          "name": "",
          "type": "tuple[]"
        }
      ],
      "stateMutability": "view",
      "type": "function"
    },
    {
      "inputs": [],
      "name": "nonce",
      "outputs": [
        {
          "internalType": "uint32",
          "name": "",
          "type": "uint32"
        }
      ],
      "stateMutability": "view",
      "type": "function"
    },
    {
      "inputs": [],
      "name": "userResponses",
      "outputs": [
        {
          "components": [
            {
              "internalType": "string",
              "name": "CID",
              "type": "string"
            },
            {
              "internalType": "uint32",
              "name": "form_id",
              "type": "uint32"
            },
            {
              "internalType": "address",
              "name": "responder",
              "type": "address"
            }
          ],
          "internalType": "struct Web3Forms.Record[]",
          "name": "",
          "type": "tuple[]"
        }
      ],
      "stateMutability": "view",
      "type": "function"
    }
  ],
  "bytecode": "0x608060405260008060006101000a81548163ffffffff021916908363ffffffff16021790555034801561003157600080fd5b5061131f806100416000396000f3fe608060405234801561001057600080fd5b50600436106100885760003560e01c80637e519f3f1161005b5780637e519f3f1461012957806380a97d67146101595780638d5901a914610189578063affed0e0146101a557610088565b80632feee0e51461008d57806349f91bf6146100a957806352ae4658146100c75780636fce58cf146100f7575b600080fd5b6100a760048036038101906100a29190610d29565b6101c3565b005b6100b16103ce565b6040516100be9190610f7d565b60405180910390f35b6100e160048036038101906100dc9190610dbe565b610578565b6040516100ee9190610f7d565b60405180910390f35b610111600480360381019061010c9190610dbe565b610704565b60405161012093929190610fba565b60405180910390f35b610143600480360381019061013e9190610cb1565b6107e6565b6040516101509190610ff8565b60405180910390f35b610173600480360381019061016e9190610ced565b61082f565b6040516101809190610f9f565b60405180910390f35b6101a3600480360381019061019e9190610d6a565b61085e565b005b6101ad610b53565b6040516101ba9190610ff8565b60405180910390f35b60006040518060600160405280838152602001600160008054906101000a900463ffffffff166101f391906110cf565b63ffffffff1681526020013373ffffffffffffffffffffffffffffffffffffffff1681525090508060076000600160008054906101000a900463ffffffff1661023c91906110cf565b63ffffffff1663ffffffff1681526020019081526020016000206000820151816000019080519060200190610272929190610b67565b5060208201518160010160006101000a81548163ffffffff021916908363ffffffff16021790555060408201518160010160046101000a81548173ffffffffffffffffffffffffffffffffffffffff021916908373ffffffffffffffffffffffffffffffffffffffff160217905550905050600860003373ffffffffffffffffffffffffffffffffffffffff1673ffffffffffffffffffffffffffffffffffffffff168152602001908152602001600020600160008054906101000a900463ffffffff1661034091906110cf565b90806001815401808255809150506001900390600052602060002090600891828204019190066004029091909190916101000a81548163ffffffff021916908363ffffffff16021790555060016000808282829054906101000a900463ffffffff166103ac91906110cf565b92506101000a81548163ffffffff021916908363ffffffff1602179055505050565b6060600660003373ffffffffffffffffffffffffffffffffffffffff1673ffffffffffffffffffffffffffffffffffffffff168152602001908152602001600020805480602002602001604051908101604052809291908181526020016000905b8282101561056f5783829060005260206000209060020201604051806060016040529081600082018054610462906111a3565b80601f016020809104026020016040519081016040528092919081815260200182805461048e906111a3565b80156104db5780601f106104b0576101008083540402835291602001916104db565b820191906000526020600020905b8154815290600101906020018083116104be57829003601f168201915b505050505081526020016001820160009054906101000a900463ffffffff1663ffffffff1663ffffffff1681526020016001820160049054906101000a900473ffffffffffffffffffffffffffffffffffffffff1673ffffffffffffffffffffffffffffffffffffffff1673ffffffffffffffffffffffffffffffffffffffff16815250508152602001906001019061042f565b50505050905090565b6060600560008363ffffffff1663ffffffff168152602001908152602001600020805480602002602001604051908101604052809291908181526020016000905b828210156106f957838290600052602060002090600202016040518060600160405290816000820180546105ec906111a3565b80601f0160208091040260200160405190810160405280929190818152602001828054610618906111a3565b80156106655780601f1061063a57610100808354040283529160200191610665565b820191906000526020600020905b81548152906001019060200180831161064857829003601f168201915b505050505081526020016001820160009054906101000a900463ffffffff1663ffffffff1663ffffffff1681526020016001820160049054906101000a900473ffffffffffffffffffffffffffffffffffffffff1673ffffffffffffffffffffffffffffffffffffffff1673ffffffffffffffffffffffffffffffffffffffff1681525050815260200190600101906105b9565b505050509050919050565b6007602052806000526040600020600091509050806000018054610727906111a3565b80601f0160208091040260200160405190810160405280929190818152602001828054610753906111a3565b80156107a05780601f10610775576101008083540402835291602001916107a0565b820191906000526020600020905b81548152906001019060200180831161078357829003601f168201915b5050505050908060010160009054906101000a900463ffffffff16908060010160049054906101000a900473ffffffffffffffffffffffffffffffffffffffff16905083565b6008602052816000526040600020818154811061080257600080fd5b9060005260206000209060089182820401919006600402915091509054906101000a900463ffffffff1681565b60096020528160005260406000206020528060005260406000206000915091509054906101000a900460ff1681565b600960003373ffffffffffffffffffffffffffffffffffffffff1673ffffffffffffffffffffffffffffffffffffffff16815260200190815260200160002060008263ffffffff1663ffffffff16815260200190815260200160002060009054906101000a900460ff16156108d257600080fd5b600060405180606001604052808481526020018363ffffffff1681526020013373ffffffffffffffffffffffffffffffffffffffff168152509050600560008363ffffffff1663ffffffff1681526020019081526020016000208190806001815401808255809150506001900390600052602060002090600202016000909190919091506000820151816000019080519060200190610972929190610b67565b5060208201518160010160006101000a81548163ffffffff021916908363ffffffff16021790555060408201518160010160046101000a81548173ffffffffffffffffffffffffffffffffffffffff021916908373ffffffffffffffffffffffffffffffffffffffff1602179055505050600660003373ffffffffffffffffffffffffffffffffffffffff1673ffffffffffffffffffffffffffffffffffffffff1681526020019081526020016000208190806001815401808255809150506001900390600052602060002090600202016000909190919091506000820151816000019080519060200190610a68929190610b67565b5060208201518160010160006101000a81548163ffffffff021916908363ffffffff16021790555060408201518160010160046101000a81548173ffffffffffffffffffffffffffffffffffffffff021916908373ffffffffffffffffffffffffffffffffffffffff16021790555050506001600960003373ffffffffffffffffffffffffffffffffffffffff1673ffffffffffffffffffffffffffffffffffffffff16815260200190815260200160002060008463ffffffff1663ffffffff16815260200190815260200160002060006101000a81548160ff021916908315150217905550505050565b60008054906101000a900463ffffffff1681565b828054610b73906111a3565b90600052602060002090601f016020900481019282610b955760008555610bdc565b82601f10610bae57805160ff1916838001178555610bdc565b82800160010185558215610bdc579182015b82811115610bdb578251825591602001919060010190610bc0565b5b509050610be99190610bed565b5090565b5b80821115610c06576000816000905550600101610bee565b5090565b6000610c1d610c1884611038565b611013565b905082815260208101848484011115610c3557600080fd5b610c40848285611161565b509392505050565b600081359050610c57816112a4565b92915050565b600082601f830112610c6e57600080fd5b8135610c7e848260208601610c0a565b91505092915050565b600081359050610c96816112bb565b92915050565b600081359050610cab816112d2565b92915050565b60008060408385031215610cc457600080fd5b6000610cd285828601610c48565b9250506020610ce385828601610c87565b9150509250929050565b60008060408385031215610d0057600080fd5b6000610d0e85828601610c48565b9250506020610d1f85828601610c9c565b9150509250929050565b600060208284031215610d3b57600080fd5b600082013567ffffffffffffffff811115610d5557600080fd5b610d6184828501610c5d565b91505092915050565b60008060408385031215610d7d57600080fd5b600083013567ffffffffffffffff811115610d9757600080fd5b610da385828601610c5d565b9250506020610db485828601610c9c565b9150509250929050565b600060208284031215610dd057600080fd5b6000610dde84828501610c9c565b91505092915050565b6000610df38383610f0f565b905092915050565b610e0481611109565b82525050565b610e1381611109565b82525050565b6000610e2482611079565b610e2e818561109c565b935083602082028501610e4085611069565b8060005b85811015610e7c5784840389528151610e5d8582610de7565b9450610e688361108f565b925060208a01995050600181019050610e44565b50829750879550505050505092915050565b610e978161111b565b82525050565b6000610ea882611084565b610eb281856110ad565b9350610ec2818560208601611170565b610ecb81611293565b840191505092915050565b6000610ee182611084565b610eeb81856110be565b9350610efb818560208601611170565b610f0481611293565b840191505092915050565b60006060830160008301518482036000860152610f2c8282610e9d565b9150506020830151610f416020860182610f5f565b506040830151610f546040860182610dfb565b508091505092915050565b610f6881611151565b82525050565b610f7781611151565b82525050565b60006020820190508181036000830152610f978184610e19565b905092915050565b6000602082019050610fb46000830184610e8e565b92915050565b60006060820190508181036000830152610fd48186610ed6565b9050610fe36020830185610f6e565b610ff06040830184610e0a565b949350505050565b600060208201905061100d6000830184610f6e565b92915050565b600061101d61102e565b905061102982826111d5565b919050565b6000604051905090565b600067ffffffffffffffff82111561105357611052611264565b5b61105c82611293565b9050602081019050919050565b6000819050602082019050919050565b600081519050919050565b600081519050919050565b6000602082019050919050565b600082825260208201905092915050565b600082825260208201905092915050565b600082825260208201905092915050565b60006110da82611151565b91506110e583611151565b92508263ffffffff038211156110fe576110fd611206565b5b828201905092915050565b600061111482611127565b9050919050565b60008115159050919050565b600073ffffffffffffffffffffffffffffffffffffffff82169050919050565b6000819050919050565b600063ffffffff82169050919050565b82818337600083830152505050565b60005b8381101561118e578082015181840152602081019050611173565b8381111561119d576000848401525b50505050565b600060028204905060018216806111bb57607f821691505b602082108114156111cf576111ce611235565b5b50919050565b6111de82611293565b810181811067ffffffffffffffff821117156111fd576111fc611264565b5b80604052505050565b7f4e487b7100000000000000000000000000000000000000000000000000000000600052601160045260246000fd5b7f4e487b7100000000000000000000000000000000000000000000000000000000600052602260045260246000fd5b7f4e487b7100000000000000000000000000000000000000000000000000000000600052604160045260246000fd5b6000601f19601f8301169050919050565b6112ad81611109565b81146112b857600080fd5b50565b6112c481611147565b81146112cf57600080fd5b50565b6112db81611151565b81146112e657600080fd5b5056fea2646970667358221220dd2782497d7b78f50b0713d1959ab0571bb09c89ab300c6bce7e07cddb92caff64736f6c63430008040033",
  "linkReferences": {},
  "deployedLinkReferences": {}
}